:020000040040BA
:100000004831402025374000233740002337400047
:100010002337400023374000233740000000000012
:100020000000000000000000000000002337400036
:1000300023374000000000002337400023374000F2
:100040002337400023374000233740002337400048
:100050002337400023374000233740002337400038
:1000600023374000000000003D3240005132400084
:1000700065324000233740002337400023374000DB
:10008000793240008D324000233740002337400052
:1000900023374000233740002337400023374000F8
:1000A00023374000233740002337400023374000E8
:1000B00023374000233740002337400023374000D8
:1000C00023374000233740002337400023374000C8
:1000D00000000000233740000000000023374000EC
:1000E00023374000233740002337400023374000A8
:1000F0002337400023374000233740002337400098
:100100002337400023374000233740002337400087
:100110002337400000000000000000000000000045
:100120002337400023374000233740002337400067
:1001300023374000000000002337400023374000F1
:1001400010B5054C237833B9044B13B10448AFF311
:1001500000800123237010BDD00940200000000062
:10016000587F40000C4B43B10C480D4910B5AFF31C
:1001700000800C48036823B910BD0A48036833B9EE
:100180007047094B002BF7D0BDE810401847064BCD
:10019000002BF5D0184700BF00000000587F40003A
:1001A000D4094020587F400000000000102808D1EA
:1001B000B1F1805F05D108B5024B1B6803B19847C8
:1001C00008BD7047EC09402050B170B5441E054E83
:1001D000054D3046A847013CB4F1FF3FF9D170BD51
:1001E000704700BF35160300010040202DE9F041A3
:1001F000094F4FF40038C7F83480084D08266E6365
:100200006420074CA047C7F830806420A0472E63C5
:100210006420A047BDE8F08100120E4000100E409F
:10022000C901400010B50022144B1A600A20144C7A
:10023000A0470B20A0470C20A0471020A04711206A
:10024000A047104B08221A61C3F8A0201A630E4A77
:100250004FF400311161C2F8A010116304221A6139
:10026000C3F8A0201A63094B1B6813F0010F01D0DB
:10027000064B1B68064B9847002010BDEC09402038
:100280004534400000100E4000120E4010E000E027
:10029000ED01400030B583B0144B18601020144BB2
:1002A00098474FF020517C20124B9847124C012266
:1002B0004FF080512046114B9847114B009351232A
:1002C0004FF08052102120460E4DA8474FF080512C
:1002D00020460D4B98474FF480320C4B1A60002299
:1002E000102120460A4B984703B030BDEC0940204E
:1002F000453440004D30400000140E40112F4000A6
:10030000AD014000CD3140003D30400000E100E053
:10031000A132400008B528B94FF080510448054B80
:10032000984708BD4FF080510148034B984708BDDE
:1003300000140E40413040003D304000F8B5394CCB
:100340004FF480112166C4F8901061656162C4F8B1
:100350008010236F0B432367636F23F4801363675D
:100360004FF400122266C4F8902062656262C4F8FD
:100370008020236F13432367636F23F400136367A5
:100380004FF480032366C4F8903063656362C4F859
:100390008030206F18432067606F20F48000606712
:1003A0006160626063604FF000766660266026617F
:1003B00026631D4D28461D4B984702232B60802342
:1003C0002B606B6843F001036B606B6843F01003B4
:1003D0006B6001212846164B9847002201212846D0
:1003E000144B9847012211462846134B9847002288
:1003F00001212846114B984711491248124B984742
:10040000C2B201212846114B984700231A46012108
:1004100028460F4FB84701232B6026630D4B9847A2
:100420000020F8BD00140E400080004099344000C8
:10043000C53440003F3540005D3540007B3540000D
:1004400000A3E111006CDC028F354000A5354000AF
:10045000CD354000ED0140002DE9F04F83B0032879
:1004600044D10E684D680C8900238DF80430ADF836
:10047000063086B1002D36D14FF00108994601AD06
:100480004FF00072204B5A632CB3204FDFF894B02A
:10049000DFF894A006E04FF000084FF0010901AE2C
:1004A000EEE7C4B100231A4631783846D8470DF13B
:1004B00005020DF106013846D047BDF806302B7015
:1004C000013CA4B2B8F1000F00D10135B9F1000F21
:1004D000E7D10136E5E74FF000720B4B1A630020BD
:1004E00003B0BDE8F08F6FF00500F9E740F21F128E
:1004F00007490848084CA0470848A0470848A047B3
:100500004FF0FF30ECE700BF00140E4000800040C9
:10051000386F4000486F4000E13F40005C6F400092
:10052000746F40000B354000DB34400002220E4B5C
:100530001A6003F5592303F580634FF400125A61E2
:10054000C3F8A0204FF480125A61C3F8A0204FF4E2
:1005500080025A61C3F8A0204FF000725A61C3F8BC
:10056000A0200020704700BF008000403AB1013950
:10057000821811F8013F00F8013B9042F9D1704711
:1005800022B1821800F8011B9042FBD1704703781A
:1005900043B1002301339BB210F8012F002AF9D197
:1005A000184670470023FBE7024A13780133DBB299
:1005B00013707047F30940207047000000B583B006
:1005C00001200B4B984701A941F27000094B984755
:1005D000034618B1184603B05DF804FB019941F0D9
:1005E0000201019141F27000034B98470346F1E785
:1005F00015034000A9184000B518400008B5124B7B
:100600001B784BB9114B1B78DBB2032B0CD00F4B73
:100610001B78DBB2042B07D00B4A13780133DBB213
:1006200013700023184608BD094B9847034600285D
:10063000F8D145F2786141F27400064B98470346C1
:100640000028E9D0EEE700BFF1094020F009402082
:1006500019144000B51840001E4B1B7823B11D4AE9
:100660001378013BDBB213701A4B1B78002B2ED191
:10067000194B1B78DBB2032B06D0174B1B78DBB270
:10068000042B01D0002323E000B583B000230193A5
:1006900044F2213141F27400104B9847034618B1DF
:1006A000184603B05DF804FB01A901200C4B9847E4
:1006B00003460028F4D1019911F0020FF0D021F087
:1006C000020101910120054B98470346E8E700230A
:1006D00018467047F1094020F0094020B518400045
:1006E000A91840002DE9F04F87B00746884692468A
:1006F0009946109CBDF84460BDF8485001F07F0356
:100700008DF815308DF814000823ADF81630002C44
:1007100000F09F80BDF8163016FA83F32B449BB28D
:10072000ADF816305C4B98478346002840F0A28015
:1007300000230393ADF806300293029B1F430297F8
:10074000029B43EA08230293BDF81620029B43EA6A
:1007500002430293029941F28C00504B9847834622
:10076000002840F0918000230293029B43F0020393
:100770000293029941F27800484B9847834600283B
:1007800040F0828000230393ADF80630BDF80630B8
:100790009BB2B3F57A7F16D241F27808404F02A996
:1007A0004046B84778B9029B13F0020F59D0BDF804
:1007B000063001339BB2ADF80630BDF806309BB26F
:1007C000B3F57A7FEBD3039B002B61D0039B04939B
:1007D000BDF816309BB2ADF816300498082205A972
:1007E000304B9847834600284ED1049B083304932E
:1007F000BAF1000F0AD004984A465146294B98474F
:100800008346002840D1049B4B4404937CB1049B55
:10081000A5EB09051D440495049832462146214B59
:100820009847834600282FD1049B1E440496039BBF
:100830009B000293029B43F002030293029941F250
:100840006C00164B98478346F0B9174B9847834680
:100850001AE0BDF8163019FA83F39BB2ADF81630E2
:1008600060E703A911480E4B98470028ABD000233E
:100870000393A8E740F29F120D490E480E4CA04783
:100880000E48A0470E48A047584607B0BDE8F08F75
:100890006FF0020BF8E700BFFD054000B5184000FF
:1008A000A91840001D194000590640000004150019
:1008B000786F4000486F4000E13F4000CC7140003D
:1008C000746F40002DE9F04387B0DFF8F892A24F33
:1008D000A24EDFF8F482D5E0042204A90598A04BCB
:1008E0009847BDF812309BB2ADF81230044600288C
:1008F00030D1BDF812309BB29D4205D0BDF8123008
:100900009BB2EB1A042B33DC9DF81030DBB2012BC9
:1009100047D09DF81030DBB2022B5FD09DF810302D
:10092000DBB2042B68D09DF81030DBB2062B71D0FF
:100930009DF81030DBB2072B7AD040F202224146FC
:100940003046884CA0478848A0478848A0476FF0A9
:10095000050496E04FF4EB7241463046814DA847BE
:100960008348A8478148A8470120824B984788E0E0
:1009700040F2DF12414630467A4CA047BDF81220C3
:100980009DF810309DF81110009192B229467A48D6
:10099000A0477648A0470120764B98476FF00504A2
:1009A0006FE0764B1B6843B19DF81100BDF8121043
:1009B0000839059A083289B29847714B1B78002B89
:1009C0005CD140F2092241463046664CA0476D4852
:1009D000A0476648A0476C4B98474FE06B4B1B689D
:1009E000002BEAD09DF81100BDF812100839059AC5
:1009F000083289B29847E0E7654B1B68002BDCD0D2
:100A00009DF81100BDF812100839059A083289B214
:100A10009847D2E75F4B1B68002BCED09DF81100A2
:100A2000BDF812100839059A083289B29847C4E710
:100A3000594B1B68002BC0D09DF81100BDF8121057
:100A40000839059A083289B29847B6E740F2112270
:100A500041463046434CA0475048A0474348A04732
:100A60006FF001042FE04FF40672414630463D4CD2
:100A7000A04703994A48A0473C48A047494B98479C
:100A8000044604BB99F80030002B00F09F8099F8D1
:100A90000030013BDBB289F800301FE040F21E223B
:100AA000414630462F4DA8473F48A8472F48A84702
:100AB00009E04FF40972414630462A4DA8473B48A9
:100AC000A8472A48A84740F2432239493046254DD5
:100AD000A84721463748A8472448A847B8470446AE
:100AE0000028E6D103A941F27000334B9847044631
:100AF0000028D3D1039B13F0010FB4D01D4B9847AE
:100B0000039921F00101039141F270002B4B9847AA
:100B100004460028D7D10022194B1A70039DC5F353
:100B20008B05002D92D006A941F8042D41F28400D6
:100B3000214B9847044600283FF4CEAE4FF4E772AD
:100B400041463046074DA8471D48A8470748A847D3
:100B50000120084B984794E7FD054000486F40008E
:100B6000C1184000E13F400038704000746F400001
:100B7000E06F400015034000F86F4000080A402075
:100B8000F209402050704000BD054000FC094020A3
:100B9000000A4020F4094020040A402074704000FC
:100BA0008870400059064000A4704000C8704000A2
:100BB0008C6F4000E8704000A9184000B518400054
:100BC000B86F4000F3094020846F4000002007B058
:100BD000BDE8F0832DE9F04383B01C46002A18BF1E
:100BE000002903D005460F461646B8B94CB101227C
:100BF000324B1A70324B98470346184603B0BDE893
:100C0000F08340F269222F492F48304CA0473048EA
:100C1000A0473048A0476FF00B03EEE7694641F26A
:100C200070002D4B984703460028E6D1DDF8008080
:100C300001A941F28400284B984703460028DCD1E3
:100C4000C8F38B0846451CD8019B9D4228D305EB71
:100C500006094344994523D83246394628461F4B56
:100C6000984703460028C8D1019A9044C84501D04E
:100C7000002CC2D00122114B1A70114B9847034629
:100C8000BBE740F27A220F490F48104CA04742467A
:100C900031461348A0470F48A0476FF00B03ACE75D
:100CA0004FF4207207490848084CA0470D48A04758
:100CB0000848A0476FF00B039FE700BFF2094020F0
:100CC000BD0540009C6F4000486F4000E13F400080
:100CD00018714000746F4000A9184000C11840000E
:100CE000387140007C71400038B5431E062B1DD87A
:100CF000DFE803F00804100C1C141800134B1960F3
:100D0000002038BD124B1960002038BD114B19600E
:100D1000002038BD104B1960002038BD0F4B196002
:100D2000002038BD0E4B1960002038BD044640F24B
:100D3000B9220C490C480D4DA84721460C48A8473C
:100D40000C48A8476FF00B0038BD00BFFC094020DD
:100D5000080A4020000A4020F8094020F4094020F9
:100D6000040A4020A86F4000486F4000E13F400067
:100D7000C0714000746F400010B50024094B1C6026
:100D8000094B1C60094B1C70094B1C70094B1C70F3
:100D900009480A4B98470A4903200A4B98472046BE
:100DA00010BD00BF080A4020FC094020F109402086
:100DB000F0094020F3094020A905400095024000B9
:100DC000B9054000E90C400030B59FB015462C280D
:100DD0002ED004461B283BD0062849D00E2825D00B
:100DE000322855D02F2863D0342876D0112800F02F
:100DF0009380132800F0A880042800F0B7806528AD
:100E000000F0C680092800F0D5802A2800F0E48090
:100E1000202800F0F3804FF4957286498648874D6C
:100E2000A84721468648A8478648A8471FB030BD36
:100E30000023042203A92846834CA0470028F5D1AB
:100E4000824B1B68002BF1D003A92C209847EDE7BB
:100E50000023082203A928467B4CA0470028E5D19F
:100E60007A4B1B68002BE1D003A91B209847DDE7D4
:100E70000123302203A92846734CA0470028D5D16E
:100E8000724B1B68002BD1D003A906209847CDE7F1
:100E90000023102203A928466B4CA0470028C5D187
:100EA0006A4B1B68002BC1D003A932209847BDE7CD
:100EB0006422002103A8664B98470023642203A9FB
:100EC0002846614CA0470028B0D1604B1B68002B1E
:100ED000ACD003A92F209847A8E70023042203A938
:100EE0002846594CA0470028A0D15A48534CA04747
:100EF0000399CBB20093C1F30723C1F30742090E54
:100F00005548A0474F48A047504B1B68002B8DD039
:100F100000213420984789E70023504A13700422A7
:100F200003A92846484CA04700287FF47FAF9DF8CE
:100F30000C204B4B1A70454B1B68002B3FF476AFCF
:100F400003A91120984771E700232C2203A9284602
:100F50003D4CA04700287FF469AF3C4B1B68002B39
:100F60003FF464AF03A9132098475FE700230422EE
:100F70001CA92846344CA04700287FF457AF334BB8
:100F80001B68002B3FF452AF1CA9042098474DE783
:100F9000002304221CA928462B4CA04700287FF4DC
:100FA00045AF2A4B1B68002B3FF440AF1CA96520BE
:100FB00098473BE70123642203A92846224CA04717
:100FC00000287FF433AF214B1B68002B3FF42EAF7A
:100FD00003A90920984729E70123042203A92846E9
:100FE000194CA04700287FF421AF184B1B68002B39
:100FF0003FF41CAF03A92A20984717E700230822D3
:1010000003A92846104CA04700287FF40FAF012306
:10101000BDF81020039905F10800A04700287FF4CF
:1010200005AF0A4B1B68002B3FF400AF03A920203B
:101030009847FBE6EC714000486F4000E13F4000FC
:1010400048724000746F4000D50B40000C0A4020ED
:10105000810540001C72400028724000110A4020A7
:10106000100A4020F0B58BB001238DF8073000281E
:1010700050D00268294B1A600022294B1A700DF1DA
:101080000700284B9847044610B120460BB0F0BD2E
:10109000254B98470446002838D124490120244B89
:1010A000984702A8234B98470446234F3846234DC0
:1010B000A8479DF80E309DF80D209DF80C10204893
:1010C000A847204E3046A8473846A8479DF811301B
:1010D0009DF810209DF80F101B48A8473046A847E0
:1010E0003846A8470023032213211848A847304652
:1010F000A84714F10D0FC8D140F2D5121449154874
:10110000A8471548A8473046A847BEE70020134B1C
:101110009847BAE76FF00B04B7E700BF0C0A40200E
:10112000110A4020291A4000790D4000C90D4000E5
:10113000E90C4000791940001C724000E13F40007A
:1011400008734000746F40002473400040734000F7
:10115000F8714000486F40005C734000F51A400091
:1011600008B5014B984708BDC50840002DE9F0417E
:10117000A0B080460D4614461E46BDF89870012A60
:1011800003D0002B37D0022A42D06B1EDBB21F2BBC
:1011900075D8FF2F01D00D2F7ED82A4641460DF17C
:1011A0005A00774B984720AB1D44002305F8263C96
:1011B000ADF858709DF89C30003318BF01238DF8AE
:1011C0007B308DF85540032C73D0022C00F0AA80A0
:1011D000042C00F0C180012C40F0C4800023029355
:1011E000019300936C2305AA28210120654CA04798
:1011F00020B0BDE8F08140F2032263496348644CAB
:10120000A0476448A0476448A0476FF00B00EFE791
:101210001846624B98474028B7D13378A3F13A0279
:10122000D2B2062A1ED9A3F13002D2B2362A19D878
:10123000473BDBB2192B15D9314606F13F0011F8B7
:10124000013FA3F13A02D2B2062A0BD9A3F1300230
:10125000D2B2362A06D8473BDBB2192B02D98842D4
:10126000EDD192E740F20F2247494848484CA04749
:101270004B48A0474848A0476FF00B00B8E740F242
:10128000192241494148424CA0474648A04742489C
:10129000A0476FF00B00ABE740F222223A493B48EF
:1012A0003B4CA0474048A0473B48A0476FF00B008D
:1012B0009EE73378013BDBB28DF81430032B13D853
:1012C0007278531E8DF8153002F0EF030B2B1AD1F4
:1012D000B11C0DF116002A4B9847737820AA1344CD
:1012E000002203F86A2C79E740F239222649274880
:1012F000274CA0479DF814102C48A0472648A0472B
:101300006FF00B0074E74FF410721F491F48204C18
:10131000A0479DF815102648A0471F48A0476FF02A
:101320000B0065E730461D4B9847431E9BB23F2B91
:1013300005D8421C314605A8114B98474EE740F2AC
:101340004F2211491148124CA0471A48A047124891
:10135000A0476FF00B004BE73E22314605A8084B33
:1013600098473BE740F25F2207490848084CA047EE
:101370001148A0470848A0476FF00B0038E700BFAE
:101380006D054000E506400008724000486F4000CF
:10139000E13F40005C724000746F40008F054000E8
:1013A000707240008072400094724000A072400051
:1013B000BC724000D8724000F472400010B582B098
:1013C00000240194BDF810400094024CA04702B0E4
:1013D00010BD00BF6D11400000207047F0B583B014
:1013E00004464FF4A5550A4E0A4F21462846B047F9
:1013F00054B102A9002341F8043D2846B84700280B
:10140000F3D1019B9C42F0D1002003B0F0BD00BF9E
:10141000B5184000A91840002DE9F04F83B0012015
:101420003C4B984701A901203B4B9847824638B96D
:1014300000244FF00108DFF80891364D374F20E0C7
:10144000722237493748384CA0473848A0473848B7
:10145000A04709E0962232493248334CA04735482C
:10146000A0473348A047B246504603B0BDE8F08FCE
:10147000019941F002014046C847009B13F0040F58
:10148000F2D1019941F002014046C8474046A847C1
:101490006946294B1868204B984708B9009BBBB98F
:1014A000254E0E2333604046A847694630681A4BE4
:1014B000984708B9009B5BB91F4E13233360404621
:1014C000A84769463068144B984706460028C1D1A2
:1014D000194E009B13F0040FC6D10134A7FB04235F
:1014E0005B0803EB43039C42C2D10220A847694634
:1014F0003068094B9847009B13F0040FE9D1AA22EA
:1015000007490848DFF820B0D8470C48D8470848B2
:10151000D847DEE7C9014000A9184000ABAAAAAA33
:1015200078734000486F4000E13F4000E87340009E
:10153000746F400008744000100040202874400080
:10154000B518400000B583B001A941F20840154B21
:101550009847E8B9019941F48071019141F208403E
:10156000114B9847B8B901A94FF4D0500D4B98478B
:10157000A0B9019941F4803101914FF4D0500A4B48
:101580009847002818BF6FF0050003B05DF804FB12
:101590006FF00500F9E76FF00500F6E76FF0050062
:1015A000F3E700BFA9184000B518400010B582B09D
:1015B000254B1C6824B1244B1C68204602B010BD8A
:1015C00019464FF48050214B984718B100221E4B0A
:1015D0001A60F2E701A941F2F4301C4B984718B1A8
:1015E0000022194B1A60E8E7174B1B68184A934210
:1015F0000DD0184A934211D0174A934218D0124A7C
:10160000136823F4702343F4A0231360D3E7019BF2
:10161000012BF4D001320C4B1A60F0E7019B032B35
:10162000EDD0042B0CBF01320C4A074B1A60E6E7E1
:1016300005494FF46C10054B98470028DFD0002275
:10164000014B1A60B9E700BF140A4020A9184000F6
:10165000A0021000B0021000F0001000B202100052
:101660002DE9F041074641F21405284C284E284642
:10167000A047002802DB0120B047F8E72548234BAC
:10168000984710F0010F10D1DFF884801F4E224DD3
:101690000120C0474FF00C10B04704462A460146CF
:1016A0001E481F4B9847AC42F2D1022F19D0032F8E
:1016B00022D0042F14BF002480241A4B9847C0F373
:1016C0000B00B0F5687F0CBF44F002002046164BBB
:1016D000984716494FF00C10154B98470020BDE86D
:1016E000F08114491448124CA0474FF4801141F284
:1016F0008C00A0470024E0E70E490F480C4CA0479F
:10170000002141F28C00A0470024D6E79D1840003C
:10171000C9014000BC0702009ED0AD104C744000CF
:10172000E13F4000AD154000DD134000612F52EF56
:10173000B51840007DD51C3CAC070200F0B583B065
:1017400041F28C030193184B00930238C0B2012878
:1017500011D94FF0FF3400200227144E144D009B86
:10176000984212D03846B0470198A847013CF6D1BC
:101770006FF004000EE00F4B0193A3F12253A3F589
:101780001113A3F2E9530093E3E7009A064B9A4240
:1017900002D0002003B0F0BD002141F28C00064BC6
:1017A00098470020F6E700BF36265302C9014000E3
:1017B0009D184000AC070200B5184000F0B583B09A
:1017C00002A9002341F8043D4FF4A050244B984750
:1017D00020BB019921F4806101914FF4A050214B6D
:1017E0009847054628BB0A241D4E1E4F01A94FF4F9
:1017F000A050B047054638BB019911F4806F0AD05C
:1018000021F4806101914FF4A050B8470546631E52
:1018100013F0FF04EAD1284603B0F0BD40F23122B4
:1018200011491248124CA0471248A0471248A0473D
:10183000CFE740F237220C490C480D4CA0470F4827
:10184000A0470D48A047E6E740F23E220649074878
:10185000074CA0470A48A0470748A047DBE700BF5E
:10186000A9184000B518400088734000486F400038
:10187000E13F400094734000746F4000B07340003B
:10188000CC73400008B5014B984708BD3D034000AC
:1018900008B5014B984708BD2D05400008B5014B20
:1018A000984708BDF120400008B5014B984708BD96
:1018B0000921400008B5014B984708BD212140008F
:1018C0002DE9F047074689461546124BB3F80080CC
:1018D000A8F108081FFA88F8424519D9444600269D
:1018E000DFF834A0424609EB06013846D0470346EC
:1018F00058B92D1B26442744A542F3D8AAB209EBB8
:1019000006013846044B984703461846BDE8F08761
:101910000026F3E70C0040204D2240002DE9F0475F
:10192000074689461546124BB3F80080A8F108080F
:101930001FFA88F8424519D944460026DFF834A03A
:10194000424609EB06013846D047034658B92D1BDD
:1019500026442744A542F3D8AAB209EB060138462B
:10196000044B984703461846BDE8F0870026F3E786
:101970000C0040201523400030B583B0044602A976
:10198000002341F8043D2448244B98470546019A1A
:10199000234B9A4239D0019B1A0C91B2080AE0718C
:1019A000C1F30311217202F00F0262729AB2110A9E
:1019B0002171C2F30312627103F00F03A371194B7B
:1019C000984720602279A37903F00F0343EA0223AA
:1019D00062791201D2B21343E179627A02F00F0206
:1019E00042EA0122217A0901C9B20A4341F23031A7
:1019F0008A4288BF6FF00C0541F22F3293428CBFB0
:101A000028466FF00C0003B030BD01A941F2480038
:101A1000024B98470546BEE7AC070200A9184000F4
:101A2000C3C15DD7AD15400038B5002837D0047864
:101A3000631EDBB2042B28BF012400201E4B9847F5
:101A4000054600282DD11D481D4DA8471D4B984720
:101A500001461D48A8471D48A8471D4B98472046EA
:101A60001C4B98470546B0B920461B4B9847054686
:101A700088B9023CE4B2012C0FD9184B98470546AF
:101A800058B14FF4AE72164916480D4CA04716488F
:101A9000A0470E48A047154B9847284638BD01245B
:101AA000CBE74FF492720E490E48054CA047104800
:101AB000A0470648A047F0E7851840001C72400088
:101AC000E13F4000AD15400014754000746F4000C8
:101AD00039214000611640003D1740004515400087
:101AE0005C744000486F4000D8744000911840007A
:101AF000F874400038B5194B984758B90020184B76
:101B00009847044698B9174B98470446D0B9164BE6
:101B100098470AE004464FF4BA7214491448154D28
:101B2000A8471548A8471548A847204638BD40F2A1
:101B30007B120E490E480F4DA8471148A8470F4881
:101B4000A847F2E740F2811208490948094DA84721
:101B50000C48A8470948A847E7E700BFBD17400061
:101B6000992B400091184000E52040006874400027
:101B7000486F4000E13F400078744000746F4000BF
:101B800098744000BC74400000B585B000230193F8
:101B90000290ADF80C1001A90320024B984705B044
:101BA0005DF804FB590440002DE9F04182B0054680
:101BB00000F13B03DBB2012B27D9CF2825D00B2422
:101BC0004FF00108234F41460DF10700B847064684
:101BD00020BB9DF80730AB422CD0631E13F0FF04EE
:101BE000F1D10B2401271B4D39460DF10700A84701
:101BF00010BB9DF8073053B3631E13F0FF04F3D1FD
:101C00000126304602B0BDE8F08101210DF1070048
:101C1000104B98470028D2D00026F2E740F2271256
:101C20000D490E480E4CA0470E48A0470E48A0474D
:101C30000026E6E70B24D5E740F2351206490748AF
:101C4000074CA0470748A0470748A047D9E7012607
:101C5000D7E700BF891B40002C754000486F40004B
:101C6000E13F40006C794000746F40002DE9F04F77
:101C700085B083468A4617464FF00009374D27E066
:101C800040F2571236493748374CA0473748A047EB
:101C90003748A04700230193019805B0BDE8F08FB5
:101CA000002C2EDD41460BEB0900A8470446002816
:101CB00034D11FB92F4B1B78002B3AD0C1440FFAF7
:101CC00089F9AAEB080A1FFA8AFABAF1000F41D083
:101CD000D046BAF5005F28BF4FF400580A24012609
:101CE00031460DF10B00A84701900028C8D19DF89E
:101CF0000B301B090F2BD3D0013C24B2B4F1FF3FB2
:101D0000EED140F2631216491648174CA0479DF8D1
:101D10000B101948A0471648A047BDE74FF4B6720C
:101D20000F491048104CA0471448A0471048A0473E
:101D3000B2E7022103A8A8470028BFD040F27712DB
:101D400007490848084DA8470D48A8470848A8472C
:101D50000194A1E7012301939EE700BF891B400086
:101D600038754000486F4000E13F4000A0794000D6
:101D7000746F4000180A4020D4794000047A400073
:101D8000387A400000B585B0019000230293ADF889
:101D90000C1001A90320024B984705B05DF804FB25
:101DA0005904400070B584B09DF820408DF80400BF
:101DB000C1380E2800F2A280DFE800F04545661920
:101DC0002A3354547F08A0A0A0A03C000B0C8DF82F
:101DD00005300B0A8DF806308DF807100521554B9C
:101DE0001B78002B00F08C800139C9B29AE0C1F356
:101DF000072344B98DF805308DF8061000238DF8BF
:101E000007300521EBE763F07F038DF80530F3E73A
:101E100000238DF805308DF806308DF80730052148
:101E2000DDE700238DF805308DF806308DF807309A
:101E30000521D4E7FF238DF805308DF806308DF8A5
:101E400007300521CBE70A0C8DF805200A0A8DF82A
:101E500006208DF807101A0A8DF808208DF8093031
:101E60000721BCE70A0C8DF805200A0A8DF8062028
:101E70008DF807101A0C8DF808201A0A8DF8092021
:101E80008DF80A300821AAE7C1F3072384B98DF839
:101E900005308DF80610130E8DF80730130C8DF8F1
:101EA0000830130A8DF809308DF80A20082196E7CA
:101EB00063F07F038DF80530EBE70B0C8DF80530F0
:101EC0000B0A8DF806308DF80710130E8DF80830C8
:101ED000130C8DF80930130A8DF80A308DF80B2099
:101EE00009217CE74FF4847213491448144CA0472D
:101EF0001448A0471448A047002019E0002017E02C
:101F00004E1E01AB9D197F201A46104C12F8013B62
:101F100083EA4003E05C9542F8D104AB1E444300E1
:101F200006F80C3C01A80A4B98470028DAD101209A
:101F300004B070BD180A402024754000486F40006E
:101F4000E13F400040794000746F4000A0754000C0
:101F5000851D400070B582B00446312835BF01238D
:101F60000023C325C925009304230A4601462846B9
:101F7000154EB04701280DD040F2EB12134914481A
:101F8000144DA84721461448A8471448A8470020E4
:101F900002B070BD2846124B98470128F8D040F295
:101FA000F1120A490A480B4DA84721460D48A84797
:101FB0000A48A84700240094234622462146CF2001
:101FC000014DA8472046E3E7A51D40005875400095
:101FD000486F4000E13F4000F07A4000746F4000DD
:101FE000A91B40001C7B40002DE9F04184B0044651
:101FF0008846B0F5807F35BF01260026C425CA2556
:10200000009604230022014628462C4FB847012899
:102010000ED040F245222A492A482B4DA847214696
:102020002A48A8472A48A847002004B0BDE8F08104
:102030002846284B9847012814D040F24B222049CB
:102040002048214DA84721462348A8472048A847B3
:1020500000240094234622462146CF20174DA8474E
:102060002046E2E73246042103A81C4B984701288A
:1020700010D19DF80D209DF80E301B0443EA022379
:102080009DF80C2013439DF80F2043EA0263C8F823
:102090000030CAE740F2532209490A480A4CA047D7
:1020A0000F48A0470A48A047002400942346224630
:1020B0002146CF20014DA8472046B6E7A51D400088
:1020C00078754000486F4000E13F4000707A400062
:1020D000746F4000A91B40009C7A40006D1C4000BA
:1020E000D07A40000020014B18707047180A402039
:1020F00000B583B001A9034B9847019803B05DF880
:1021000004FB00BFE91F400008B5044B98470128B5
:102110000CBF00206FF0050008BD00BFE91F4000A4
:1021200008B5044B984701280CBF00206FF005004C
:1021300008BD00BF551F400030B583B0002302A981
:1021400041F8083D344A13704EF62400334B98474B
:1021500048B3314B1B787BB9009921F07C0141F0E9
:10216000500100914EF624002D4B9847044600285C
:1021700039D00122284B1A7001A94FF48050274B07
:10218000984700283AD04EF62400264B984720F076
:10219000700141F050014EF62400234B9847002473
:1021A000204603B030BD01221B4B1A7040F2C522FD
:1021B0001E491F481F4CA0471F48A0471F48A04763
:1021C00069464EF62400154B984704460028C0D1B6
:1021D0004FF4327215491648164DA8471848A847BB
:1021E0001648A847DCE740F2D22210491048114DAA
:1021F000A8471448A8471148A847D1E74FF43772B9
:102200000A490B480B4CA0470F48A0470B48A04772
:102210006FF00504C4E700BF180A4020E91F400022
:10222000551F4000F12040002121400094754000DE
:10223000486F4000E13F4000A0764000746F4000CE
:10224000F07640002077400054774000F0B583B02E
:1022500004460F461546002200922B460146C82030
:10226000224EB04701280ED04FF41D72204921485C
:10227000214DA84721462148A8472148A8476FF08B
:10228000050003B0F0BDC8201E4B9847012812D0AE
:1022900040F27A2216491748174DA84721461A4896
:1022A000A8471748A847002100910B460A46CF20AF
:1022B0000E4CA047E3E7002229463846134B9847C7
:1022C000012811D04FF4217209490A480A4CA0474D
:1022D0000F48A0470A48A047002100910B460A4634
:1022E000CF20024CA047CAE70020CAE7A51D400046
:1022F00088754000486F4000E13F40007C77400017
:10230000746F4000A91B4000AC7740006D1C40007A
:10231000E47740002DE9F04385B004468846154631
:10232000002200922B460146C7204D4EB04701289F
:102330000FD040F20F224B494B484C4DA847214645
:102340004B48A8474B48A8476FF0050005B0BDE8CB
:10235000F083C720484B9847012812D040F215223D
:1023600040494148414DA84721464448A847414873
:10237000A847002100910B460A46CF20384CA047C1
:10238000E2E70024ADF80C403D4FDFF80C911DE072
:10239000B5F5005F94BF0323022363F00F038DF8AC
:1023A0000B3001210DF10B00B847E8B9314608EBBD
:1023B0000400B847002835D199F80030002B3CD0F4
:1023C000344424B2AD1BADB2002D46D02E46B5F537
:1023D000005F28BF4FF40056002CD9D1B5F5005F3F
:1023E00094BF03230123D8E74FF4D47225491E4834
:1023F0001E4CA0472448A0471E48A04740F2262272
:1024000018491948194CA0472048A0471948A04727
:1024100000240094234622462146CF20104DA84791
:10242000204693E740F2B11216490F480F4CA047DF
:102430001748A0470F48A047E0E7022103A8B84784
:102440000028BDD040F2BB120E490748074CA047F8
:102450001048A0470748A047D0E7002076E700BF14
:10246000A51D400068754000486F4000E13F4000F6
:102470000C784000746F4000A91B40003C7840007D
:10248000851D400048754000747840001879400070
:10249000AC784000E0784000180A40202DE9F84F61
:1024A000BDF8284094B181460E46924698460301F5
:1024B0002249CB5853B101EB00139B889BB22BB13F
:1024C00001EB00139B7ADBB2012B01D0BDE8F88F42
:1024D000F48001EB0017DFF87CB006E0254601230D
:1024E0000BE0641BA4B2A844ECB1BB88E31A1BB296
:1024F000002BF3DDBD88ADB2002339682A46404683
:10250000D84790B93B683360B580F3885B1BF38094
:102510000B4B1B68002BE4D0094B1B68324651461D
:1025200048469847DDE7BDE8F88F0648064DA847BE
:1025300021460648A8470648A847C7E75410402048
:10254000041140201C724000E13F4000547B4000D9
:10255000746F4000D50B4000F0B599B01446412887
:1025600049D00D4642285FD0432875D0442800F05A
:10257000B0804B2800F0AD804A2800F0CC80A0F15C
:102580004603DBB2072B00F2F480852222FA03F324
:1025900013F0010F00F0ED80482814BF062709272B
:1025A0000023102203A92046934EB047002840F094
:1025B000B0809DF91800BDF81A10904A02EB001285
:1025C00000231373BDF914E0BDF81630BDF80E609A
:1025D000ADF82660049E0A96D28892B2914200F02D
:1025E000AC80102D40F29580012300221146104648
:1025F000814CA0478DE00023042207A920467E4C91
:10260000A047002840F085809DF81D308DF80C30E3
:102610007B4B1B68002B7CD0794B1B6803AA0121E4
:102620009DF91C00984774E00023042207A9204666
:10263000714CA04700286CD19DF81D308DF80C30EE
:102640006F4B1B68002B64D06D4B1B6803AA0221E3
:102650009DF91C0098475CE000230C220DEB020161
:102660002046654CA047002853D19DF91530002B1A
:1026700019DB624A02EB03120021D172012191722F
:1026800060490A88013292B20A800A8892B21AB965
:102690000A88013292B20A805A4A118889B2574A8E
:1026A00002EB0312D1808DF81C300223ADF82030EC
:1026B000BDF80E30ADF82230049B0993504B1B68D7
:1026C0003BB34F4B1B6807AA04219DF914009847A0
:1026D0001FE00023042207A92046474CA047C0B9A9
:1026E0009DF91C008DF80C009DF91D308DF80D3002
:1026F0003BB9BDF81E30083B9BB2404A02EB0012CA
:1027000013813F4B1B6823B13D4B1B6803AA052176
:10271000984719B0F0BD0023442207A92046364C43
:10272000A0470028F5D1384B1B68002BF1D0364B61
:102730001B68179907A89847EBE7BEF1000F01DD6A
:10274000AE450DDBADF820E0002307932C4B1B6852
:10275000002BDED02A4B1B6807AA39469847D8E7DA
:102760001FFA8EF2009223443A4607A9274CA0474D
:10277000CFE700F0FD03452B19D04C2817D0522885
:10278000C7D10123142207A920461B4CA0470028CB
:10279000BFD11F4B089A1A601B68002BB9D01C4B85
:1027A0001B689DF82C20099907989847B1E747289E
:1027B00014BF072508250023082207A920460E4C30
:1027C000A0470028A5D19DF91C00BDF82020BDF828
:1027D0001E30ADF80C30094B03EB0013DB889BB2C5
:1027E0009A4296D1064B1B68002B92D0044B1B6873
:1027F00003AA294698478CE7D50B40005410402087
:10280000041140201A0A40200C1140209D24400051
:102810000811402008B50A4B1B7803B108BDB0224F
:1028200000210848084B984708490220084B984760
:102830000122034B1A700022064B1A80EEE700BFFC
:10284000190A4020541040208105400059254000BD
:10285000E90C40001A0A4020024B1860024B196034
:10286000704700BF041140200C114020F0B587B024
:10287000022858D1012959D0022916D10B26072444
:1028800025462E4B03EB04139B7A002B51D0631C7F
:10289000DBB22A4FDCB2B44240D21D4607EB031133
:1028A000897A581C21B10346F4E74FF0FF3437E032
:1028B000224800EB0310164610220021204B9847B7
:1028C0001E4B03EB051301229A721E4A1388013333
:1028D0009BB2138013889BB21BB9138801339BB240
:1028E0001380184B1A8892B2144B03EB0513DA804D
:1028F00064B216F0010F13D006AA02F8044D0F4B74
:1029000003EB05152123EB7200230293019300933F
:102910000423502102200C4DA84701E04FF0FF3462
:10292000204607B0F0BD4FF0FF34F9E7072600243A
:10293000A6E7024800EB0410BDE700BF541040209A
:10294000810540001A0A4020E506400030B589B0F4
:10295000041E36DB002934D01D4B03EB04139B7A95
:10296000DBB2002A30D0012B2ED1194B03EB04131C
:10297000DB7A13F0010F22D0154B03EB0413DB7A43
:102980008DF81D304B258DF81C40082205A8114BF1
:1029900098470F4800EB0410C388ADF81E300023A1
:1029A0000293019300930C2305AA294602200A4CA6
:1029B000A047002818BF6FF0080009B030BD4425BB
:1029C000E1E76FF00500F8E76FF00500F5E700BFFD
:1029D000541040206D054000E506400030B589B038
:1029E0000C46003118BF0121B2F5AF6F88BF00213E
:1029F000002937D0002835DB1D4B03EB00139B7AF1
:102A0000DBB2012B31D18DF81000ADF81220184B3C
:102A100003EB0013DB88ADF81C300728B4BF50254A
:102A20004425134B03EB0013DB7A13F0010F17D08F
:102A30000F4B03EB00100589ADB24C2102950192BA
:102A4000009410230DEB030241F080010220094C99
:102A5000A04700280CBF00206FF00D0009B030BD6A
:102A60004521EBE76FF00500F8E76FF00500F5E7AB
:102A700054104020E5064000002918BF002A44D029
:102A800070B586B00E461546002836DB204A02EBAC
:102A90000012927AD2B2012A32D11D4C0101621881
:102AA00066509580127B002A2DD104EB0012012183
:102AB0001173D27A0A40002A0CBF46214D21D3B9A6
:102AC0004FF0FF3304938DF81400114B03EB00100B
:102AD000C388ADF8163000230293019300930823B6
:102AE00004AA02200B4CA04700280CBF00206FF066
:102AF0000D0006B070BD0493E5E76FF00500F8E740
:102B00006FF00500F5E70020F3E76FF00500704770
:102B100054104020E506400030B587B0041E2FDB7E
:102B20001A4B03EB04139B7ADBB2012B2BD18DF8EC
:102B30001440164B03EB0413DA88ADF8162000227C
:102B40009A72DA80DB7A03F00103934202920192D7
:102B500000924FF0040305AA0CBF49214E21022028
:102B60000B4DA847051E18BF6FF008051022002165
:102B7000064800EB0410074B9847284607B030BDC5
:102B80006FF00505F9E76FF00505F6E754104020F2
:102B9000E50640008105400070B582B005462B4B2C
:102BA0009847C0F30B00B0F5687F03D2002420469D
:102BB00002B070BD01A941F21040254B9847044670
:102BC0000028F4D1234B019A134023491943019162
:102BD00041F21040214B984705B3002120481F4D7A
:102BE000A847AB211F48A84701211F48A84700213B
:102BF0001E48A84781211E48A8471E4E1E4D30463C
:102C0000A8470128FBD11349019B194041F48031A9
:102C1000019141F21040114B9847C8E7002110483C
:102C20000E4DA847B9210F48A84701210E48A847D3
:102C300000210E48A84781210D48A8470D4E0E4D92
:102C40003046A8470128FBD1DDE700BFAD154000A5
:102C5000A9184000FF8F88F800101101B518400036
:102C6000080201000C020100140201001C02010014
:102C700004020100180201009D18400010B5104820
:102C8000104B98473E2100200F4B98470F4CA04710
:102C90000028FCD00E4B98470E4A0F4B9A620F4CFF
:102CA000A0470028FCD002200D4B984700200D4B78
:102CB00098470D4B98470248024B984710BD00BFFC
:102CC00000A3E111F9384000C13340001534400041
:102CD00025344000013F182000060E4035344000E6
:102CE000253340005D334000ED3740002DE9F041D1
:102CF00080B90C469046002A0FDD8F18084E094D0A
:102D0000306821462B6898470134BC42F8D14046D0
:102D1000BDE8F0814FF0FF38F9E78046F7E700BFE4
:102D200018114020101140200138022815D82DE933
:102D3000F0410E4614469AB10D46DFF838800C4F2C
:102D4000D8F8000015F8011B3B68984700280ADBFB
:102D5000A81B013CF4D1BDE8F0814FF0FF30704773
:102D60001046BDE8F0814FF0FF30BDE8F08100BFB4
:102D70001411402018114020F8B54FF400425C4B6C
:102D80005A60BFF34F8FBFF36F8F5A4B0022C3F8C7
:102D900050225A6942F400325A61BFF34F8FBFF399
:102DA0006F8FD3F88070C7F34E3607F007000430FA
:102DB000C7F3C907B7FA87FE0EF01F0EBFF34F8F98
:102DC0004FF0FF3404FA00FC06FA00F004FA0EF4A7
:102DD00007FA0EFE1D463A46734640EA0301C5F85F
:102DE0006012013A2344B2F1FF3FF6D1013E604444
:102DF000B6F1FF3FEFD1BFF34F8F3E4B5A6942F41C
:102E000080325A61BFF34F8FBFF36F8F3A4A3B490D
:102E10005160A1F580715160BFF34F8FBFF36F8F89
:102E2000D3F8902222F00102C3F89022D3F8942222
:102E300022F00102C3F89422BFF34F8FBFF36F8FCC
:102E40000A202F4CA0470B20A0470C20A0471020A1
:102E5000A0471120A0472B4B4FF480721A61C3F892
:102E6000A0201A63A3F580634FF400625A61C3F88F
:102E7000A0205A66C3F890205A651A62C3F88420CD
:102E8000196F21F400611967596F21F400615967C6
:102E9000C3F8C020C3F8D420C3F8B0204FF4001208
:102EA0001A66C3F890205A655A62C3F88020196FD9
:102EB00021F400111967596F21F4001159675A6004
:102EC000114AD2F8143143F01003C2F814310F4BF9
:102ED00010221A66C3F890205A655A62C3F88020FF
:102EE000196F11431967596F114359675A60F8BD3B
:102EF00050180E4000ED00E0000C0E400C08005A87
:102F00004534400000120E400080084000100E4082
:102F10000AB901667047416670474264B1F1C05F0B
:102F20003AD013D8B1F1006F25D0B1F1805F0AD14A
:102F3000036F13430367436F416F0B4023EA0203A0
:102F40004367426070470029FBD17047B1F1205FB1
:102F500021D009D8B1F1005FF3D1036F13430367A8
:102F6000436F13434367ECE7B1F1405F13D0B1F116
:102F7000605F10D0E5E710B4016F046FD3432140C8
:102F80001C4619400167436F416F0B402340436764
:102F900042605DF8044B7047036F016F0B4023EAFA
:102FA00002030367436F13434367CAE7416412F0A8
:102FB000010F0DD1016612F00A0F0BD0016212F061
:102FC000020F09D112F0080F08D0C0F8841005E0F4
:102FD0004166F0E74162F2E7C0F8801041610160AC
:102FE000704710B4019C41644CB901664BB1016556
:102FF0004AB94163016101605DF8044B7047416665
:10300000F4E74165F4E70163F4E712F0100F12D022
:10301000C0F8B01012F0200F07D0C0F8D41012F092
:10302000400F05D0C0F8C0107047C0F8D010F6E7C8
:10303000C0F8C4107047C0F8B410704701647047FE
:1030400041647047C06C7047806C704770B582B047
:103050000D46464C04EB5014640201F0F043B3F10A
:10306000005F59D00AD8B3F1805F2FD0B3F1C05FB1
:103070003FD0B3F1006F16D0002012E0B3F1405FF3
:103080005DD0B3F1605F5AD0B3F1205FF4D100F0AE
:103090001F0101262A4606FA01F12046344B9847C3
:1030A000304602B070BD00F01F0001268640324657
:1030B0004FF0006120462F4B984715F0010F02D1C9
:1030C00026660120EDE766660120EAE700F01F00B2
:1030D0000126864032464FF080512046254B9847C6
:1030E00015F0010F02D126660120DAE7666601209D
:1030F000D7E700F01F000126864032464FF0C0514E
:1031000020461C4B984715F0010F02D1266601207E
:10311000C7E766660120C4E700F01F00012686406D
:1031200032464FF000512046124B984715F0010FE0
:1031300002D126660120B4E766660120B1E705F0FA
:10314000605200F01F01012605EA06030093C5F353
:103150008003B2F1605F14BF0022012206FA01F180
:103160002046054CA04730469BE700BF07072000DC
:10317000AD2F40001B2F4000E32F40002DE9F04110
:10318000044688460E4B9847054620460D4B984707
:10319000054013D00C4C04F1600603E0B4420DD09E
:1031A00010345DB120684045F8D161682942F5D0FE
:1031B000E3689847636825EA0305EFE7BDE8F08117
:1031C00045304000493040001C0A4020F8B5184CFA
:1031D0002668062E2AD84FF0000C6446154F04E0EE
:1031E0000134E4B2A446A64209D3A64625017D597E
:1031F0008D42F5D107EB04156D689542F0D10D4D68
:103200004FEA0E1E05EB0E0445F80E106260A36037
:103210000699E1600136664505D011461A46064B0F
:1032200098470020F8BD02490E60F6E70120F8BD7E
:103230008C0A40201C0A40200B30400008B50A21AF
:103240000148024B984708BD000E0E407D314000FA
:1032500008B50B210148024B984708BD00100E40ED
:103260007D31400008B50C210148024B984708BD4C
:1032700000120E407D31400008B510210148024B7C
:10328000984708BD00140E407D31400008B511215B
:103290000148024B984708BD00160E407D314000A2
:1032A000F8B506460D461446174B984707464FF0AB
:1032B000FF313046154B98473046154B98475FFA1B
:1032C00085FE0EF01F03012202FA03F3680911497B
:1032D00001EB8002C2F88030C2F88031002D0ADB99
:1032E0006401E4B20C4A545541F820303946304666
:1032F0000A4B9847F8BD0EF00F0E6401E4B2084A7D
:1033000002F80E40F0E700BF493040004130400075
:103310004530400000E100E000E400E03D304000C6
:1033200014ED00E0032811D0042812D002280CBFAD
:103330004FF480710021084A136B23F440730B4350
:103340001363936E13F0080FFBD070474FF4407176
:10335000F1E74FF40071EEE700060E40174A136BD9
:1033600023F0700318431063936E13F0080F0AD113
:103370004FF4805311498A6E12F0080F03D1013BBC
:10338000F9D1012070470D4A136B23F0030343F07A
:1033900002031363936E13F0080F0AD14FF48053A6
:1033A00006498A6E12F0080F05D1013BF9D10120C0
:1033B0007047002070470020704700BF00060E4095
:1033C000A0B90E48036A090289B20D4A1A400D4B92
:1033D0001343194301620246936E13F0010FFBD0B1
:1033E000064A116A084B0B431362704703490B6A84
:1033F000064A1A40064B13430B62704700060E4004
:10340000FCFFC8FF0100370000003701FCFFC8FEC9
:1034100002003701024B986E00F48030704700BF05
:1034200000060E404FF00052014B9A62704700BFF9
:1034300000060E40024B986E00F00200704700BF7D
:1034400000060E403F281ED81F280CD8114B9A6941
:1034500001238340934318D0012303FA00F00D4B5E
:1034600018610020704720380A4BD3F80821012347
:10347000834093430BD0012303FA00F0054BC3F8BC
:103480000001002070470120704700207047002095
:10349000704700BF00060E4008B5074B984203D0A6
:1034A000064B984204D008BD1520054B984708BD2F
:1034B0002A20034B9847F6E7008000400080054033
:1034C00045344000436823F4702343604368090493
:1034D00001F4702119434160704710B443F69923F9
:1034E000046914F0010F03D1013BF9D1012009E077
:1034F0008368406810F0020F02D0C3F303401070DD
:103500000B8000205DF8044B704730B443F69924DB
:10351000056915F0020F03D1013CF9D101200CE03F
:10352000446814F0020F06D0120402F47022114312
:103530000BB141F08071C160002030BC704732B9DE
:1035400000EB8100036B23F001030363704700EB82
:103550008100036B43F001030363704732B900EB52
:103560008100036B23F002030363704700EB8100CB
:10357000036B43F002030363704700EB81010B6BA5
:1035800023F0F0030B630B6B1A430A637047431E6F
:103590001944B1FBF0F0431EFE2B94BF00B24FF074
:1035A000FF3070477AB110B4144600EB81010B6B09
:1035B00023F47F430B630A6B42EA04220A63002070
:1035C0005DF8044B70474FF0FF30704710B400EBCC
:1035D0008101086B80B208630C6B44EA036343EA21
:1035E00002430B635DF8044B7047436913F0020F0D
:1035F00002D0C1610020704701207047436913F079
:10360000010F03D083690B700020704701207047C1
:1036100010B40B01934214D9C9004B0803EBC2024A
:10362000B2FBF1F2D3085C1E4FF6FE718C4201D959
:10363000012017E0416841F4002141600CE00120C5
:1036400010E0590801EBC202B2FBF3F2D3085C1E92
:103650004FF6FE718C42F2D8120402F4E0221A43B3
:10366000026200205DF8044B70470000084BC0F870
:10367000E430002343604362836288230360242391
:1036800003604FF4807303604FF4002303607047BE
:103690000041535570B505460C4616460F4B9847EA
:1036A00000220F4B1A60A4B13246216828460D4B08
:1036B0009847024678B96368A1680B4321690B43B8
:1036C000E1680B4306490B6069680B436B60104669
:1036D00070BD0122FBE70122F9E700BF6D36400013
:1036E000900A4020113640004023036070471023A9
:1036F00003607047436913F0020F04D0C1F308015F
:10370000C1610020704701207047436913F0010F29
:1037100005D08369C3F308030B60002070470120C4
:103720007047FEE700B583B0254B264A9A4210D079
:10373000254B234A9A420CD2013B9B1A23F00303E8
:10374000043313441F4951F8040B42F8040B9A4206
:10375000F9D11E4B1E4A9A420AD2013B9B1A23F012
:10376000030304331344002142F8041B9342FBD1AA
:10377000184A194B23F07F039360EFF31083B3FAD9
:1037800083F35B09019372B6BFF35F8F0022134B83
:103790001A700199124A136843F470031360BFF35F
:1037A0004F8FBFF36F8F29B101220C4B1A70BFF3FB
:1037B0005F8F62B60B4B98470B4B9847FEE700BFF5
:1037C00000004020587F4000D00940204411402094
:1037D000D009402000ED00E000004000140040202F
:1037E00088ED00E0913F4000A93D40003B4B1B6B42
:1037F00003F00303012B1DD083B1022B36D0374BCE
:103800001B6B03F07003702B5FD0344B1A6B344981
:10381000C2F302120B68D3400B607047314B5B69F7
:1038200013F0800F14BF4FF400424FF4FA422C4BB8
:103830001A60E4E7294B1B6A13F0807F03D02A4A01
:10384000274B1A60DBE7294A254B1A60234B1B6A7A
:1038500003F07003102B05D0202BD0D1224A204B2F
:103860001A60CCE7224A1E4B1A60C8E71B4B1B6A42
:1038700013F0807F16D01C4A194B1A60174B1B6B34
:1038800003F00303022BBAD1144A916A926A1448D6
:10389000C1F30A41036801FB0333D2B2B3FBF2F375
:1038A0000360ACE7114A0E4B1A600C4B1B6A03F025
:1038B0007003102B05D0202BE0D10B4A084B1A6067
:1038C000DCE70B4A064B1A60D8E7054A136809493A
:1038D000A1FB03135B081360704700BF00060E4096
:1038E0001800402010180E40001BB70000093D00D2
:1038F00000127A00ABAAAAAA124B984211D9124B15
:10390000984213D9114B984214D9114B984215D9AA
:10391000104B984294BF4FF004220F4A0F4B1A608D
:1039200070474FF080620D4B1A6070470C4A0B4B8A
:103930001A6070470B4A094B1A6070470A4A074BD6
:103940001A607047FF2C3101FF596202FF86930312
:10395000FFB3C404FFE0F50500050004000C0E40B1
:103960000001000400020004000300040A4B1B686D
:1039700053B1094B1B681A180849914208DB1046DD
:10398000054A106018467047054A034B1A60F0E775
:103990004FF0FF30704700BF940A4020FCFF4520E5
:1039A000483340204FF0FF3070474FF400534B60D6
:1039B00000207047012070470020704710B582B08A
:1039C000074B19600B0E0193C1F307430093C1F33A
:1039D0000723CAB201460348034CA04702B010BDFA
:1039E00014104020B07C4000E13F40003B4B93F975
:1039F0000030834200D0704770B51446052902D0CC
:103A0000062947D070BD3648364B9847364B1B7851
:103A1000002B4ED0354D4FF4AF6200212846344B79
:103A20009847344E0FCE0FC50FCE0FC533682B709D
:103A300014B394F90130002B1EDB2F48294B984713
:103A4000A5F1200420462D4B9847244D002382B237
:103A5000214695F900002A4EB0474FF4AF66324632
:103A600000212046224B984700233246214695F9F3
:103A70000000244CA04770BD23481A4B98470022F1
:103A8000194B1A70154C94F90000204B9847FF23EE
:103A9000237070BD1AB1B2F90430002B0ADC1C4847
:103AA000104B98470D4C94F90000184B9847FF2392
:103AB000237070BD10680B4B98470C4C4FF4AF65EA
:103AC0002A46002120460A4B984700232A462146D1
:103AD000024890F900000B4CA04770BD1C0040202C
:103AE000E07C4000E13F400010104020980A402058
:103AF00009404000F47C4000187D400081424000B5
:103B0000DD294000792A4000207D4000192B40002B
:103B10003C7D400010B582B02C2803D0322813D051
:103B200002B010BD0B78012B08D0002BF8D10D4846
:103B30000D4B984700220D4B1A70F1E70C480A4BC9
:103B400098470C4B9847EBE78B784A780878C97808
:103B5000009101460848044CA0470122034B1A700B
:103B6000DEE700BF787D4000E13F400018104020B4
:103B7000587D4000D91340009C7D4000F0B583B0D3
:103B800005460C46002301932A4B984213D02A4B3A
:103B9000984218D0294B98421DD0294B9D4222D0E3
:103BA000284B9D4227D0284B9D422ED0274B9D422B
:103BB00035D003B0F0BD1F46254E21463846B047EC
:103BC0000028FAD1E9E71F46214E21463846B04782
:103BD0000028FAD1E4E71F461D4E21463846B0477B
:103BE0000028FAD1DFE71F46194E21463846B04774
:103BF0000028FAD1DAE71E46164D01A93046A8473B
:103C00000028FAD1019B2370D3E71E46114D01A96C
:103C10003046A8470028FAD1019B2370C9E71E4609
:103C20000C4D01A93046A8470028FAD1019B23700A
:103C3000BFE700BF00080E40000A0E40001A0E4009
:103C4000001C0E40004002400080024000C00240C4
:103C5000FD3540000B37400070B50C462A4B9842AA
:103C600013D02A4B984219D0294B98421FD0294B88
:103C7000984225D0284B98422BD0284B984231D0DF
:103C8000274B984237D0002070BD1E46254D214657
:103C90003046A8470028FAD1012070BD1E46214DAC
:103CA00021463046A8470028FAD1012070BD1E46A3
:103CB0001C4D21463046A8470028FAD1012070BD8E
:103CC0001E46184D21463046A8470028FAD101204B
:103CD00070BD1E46144D21463046A8470028FAD133
:103CE000012070BD1E46104D21463046A8470028D1
:103CF000FAD1012070BD1E460B4D21463046A84723
:103D00000028FAD1012070BD00080E40000A0E40C4
:103D1000001A0E40001C0E4000400240008002408D
:103D200000C00240EB354000F5364000F0B40138E9
:103D3000002422462546264611E0A3F13007092F2C
:103D400014D802EB820207EB420207E00135032D93
:103D500024DCFF2A24D842EA042432464BB110F86E
:103D6000013F2E2BF2D0E8D8002BF2D00020F0BC7F
:103D70007047022D03DCC5F10303DB009C4089B1D1
:103D8000230E43EA0463220202F47F021A43230A49
:103D900003F47F4313430B600120E8E70020E6E7CC
:103DA0000020E4E70120E2E770B592B04D4B984760
:103DB0004D4B98470E204D4EB0474D4D4D4B1D601D
:103DC0004D4A4E4B1A604E4A4E4B1A604FF4E13347
:103DD0000293C02303934FF40063049300240594DB
:103DE00006940E20B047484A02A92846474B9847F8
:103DF0002846474B98472846464B9847464E3368D7
:103E000021469868454DA847336821465868A84719
:103E10004348444B9847444B98470D940E940F9455
:103E200010941194414B0C930CA8414B984720B12E
:103E3000014640483B4B9847FEE73F4B98473F4978
:103E40003F48404B9847404D29464048354CA04795
:103E5000FF2300933E4B02220B2128463D4DA847ED
:103E60000223ADF8203048F61303ADF8223009A93B
:103E700039483A4B984709993948A047394D3A4C47
:103E80003A4E02E03A48274B98470020A84723784B
:103E9000012BFAD196F90030002BF6DA3548214B88
:103EA0009847002201210220334B984730700028A8
:103EB000E8DB32481B4B9847102208A996F900000E
:103EC0002F4B984718B901222E4B1A70DDE796F94F
:103ED00000002D4B9847FF2333702C48114B984717
:103EE000D3E700BF7D2C4000792D400045344000D1
:103EF0000080024018114020593C4000141140201D
:103F00007D3B40001011402080D1F00895364000E4
:103F1000E9364000EF36400020004020A540400038
:103F2000687B4000E13F400025024000153B400017
:103F300065104000CC7B400015284000BD39400092
:103F4000ED39400059284000F47B4000007C4000DF
:103F5000247C4000BD134000347C40002D3D4000D7
:103F6000407C400061114000181040201C0040209F
:103F7000607C4000507C40006D284000947C4000F4
:103F80004D29400010104020192B4000A87C400013
:103F900070B50F4E0F4D761BB61018BF002405D01C
:103FA000013455F8043B9847A642F9D10A4E0B4D0F
:103FB000761B03F0BBFFB61018BF002406D00134F7
:103FC00055F8043B9847A642F9D170BD70BD00BFBB
:103FD000387F4000387F4000407F4000387F4000FD
:103FE0000FB400B5074983B004AB086853F8042B3D
:103FF0008168019300F0F2F903B05DF804EB04B0BE
:10400000704700BF2000402070B4860746D0541E81
:10401000002A41D0CAB2034602E014F1FF343BD378
:1040200003F8012B9D07F8D1032C2ED9CDB245EA18
:1040300005250F2C45EA054519D903F1100226463E
:10404000103E0F2E42F8105C42F80C5C42F8085CFF
:1040500042F8045C02F11002F2D8A4F1100222F03E
:104060000F0204F00F041032032C13440DD91E4626
:104070002246043A032A46F8045BFAD8221F22F0AB
:1040800003020432134404F003042CB1C9B21C44EB
:1040900003F8011B9C42FBD170BC704714460346D9
:1040A000C2E700BF00290CBF022200224FF4806348
:1040B00000F000B82DE9F043614C256883B0044658
:1040C0000F4690461E4615B1AB6B002B64D0B8F17D
:1040D000020F06D0B8F1010F00F29F80002EC0F24F
:1040E0009C80636ED80734D52146284601F014F928
:1040F000216B41B104F14003994202D0284601F0FE
:1041000089FA00232363B4F90C300022A2616260B3
:104110001A063AD423F44A6323F00303B8F1020FDA
:10412000A3811DD001AB6A462146284601F010FD4F
:10413000A3891843A081002E32D1009E304601F0A1
:104140007FFD074600286BD0A38943F08003A3813D
:1041500028E0A3899905C7D4A06D01F0F5FCC3E759
:104160000025616E002604F1430243F002030120A2
:10417000A660CE07A38122602261606101D4980508
:104180003ED5284603B0BDE8F0832169284601F0FA
:1041900041FAB4F90C30BDE7284601F015F996E76D
:1041A000002FCBD0AB6B002B33D0009BB4F90C208D
:1041B00027609E421CBF42F40062A281B8F1010F49
:1041C00004BF42F00102A28192B212F008032761FB
:1041D00066610ED0D1071AD5656E7642002315F0C0
:1041E0000105A661A36009D00025284603B0BDE8FB
:1041F000F083A360656E15F00105F5D19305C0D479
:10420000A06D01F0A3FC284603B0BDE8F083A660D2
:10421000F0E7284601F0D8F8C7E74FF0FF35B0E7E0
:10422000DDF80090B14504D0484601F009FD07468D
:1042300020B9B4F90C304FF0FF3592E74E4683E7D2
:1042400020004020000000000000000000000000EE
:10425000000000000000000000000000000000005E
:10426000000000000000000000000000000000004E
:10427000000000000000000000000000000000003E
:1042800090F800F06DE9024520F007016FF0000C96
:1042900010F0070491F820F040F049804FF000043E
:1042A0006FF00700D1E9002391F840F000F1080019
:1042B00082FA4CF2A4FA8CF283FA4CF3A2FA8CF351
:1042C0004BBBD1E9022382FA4CF200F10800A4FAB8
:1042D0008CF283FA4CF3A2FA8CF3E3B9D1E904230C
:1042E00082FA4CF200F10800A4FA8CF283FA4CF343
:1042F000A2FA8CF37BB9D1E9062301F1200182FAFD
:104300004CF200F10800A4FA8CF283FA4CF3A2FA02
:104310008CF3002BC6D0002A04BF04301A4612BA10
:10432000B2FA82F2FDE8024500EBD2007047D1E913
:10433000002304F00305C4F100004FEAC50514F0A2
:10434000040F91F840F00CFA05F562EA05021CBF73
:1043500063EA050362464FF00004A9E72DE9F84F30
:104360004B6E9C0493462FD59368126853B30E4648
:10437000074602F1080919E920045FEA9A0817D0F4
:10438000043D002401E0A04510D0324655F8041F3A
:10439000384601F0BBF8431C04F10104F3D10023BB
:1043A000CBF80830CBF80430BDE8F88FDBF80830E4
:1043B0002AF0030AA3EB0A03CBF8083009F1080935
:1043C000002BD8D10020EAE701F00AFA0023CBF84D
:1043D0000830CBF80430BDE8F88F00BF2DE9F04F6E
:1043E000ADB01D468B4690460793069018B1836B7F
:1043F000002B00F0F380DBF86430BBF90C00DF0722
:1044000081B202D48E0540F1FC808C040AD4DBF822
:10441000643040F4005123F40053ABF80C10CBF897
:10442000643089B2080740F1B380DBF81030002B0C
:1044300000F0AE8001F01A030A2B00F0B5800023D3
:104440000DF170090B93119310930393CDF83C90E9
:10445000CA46CDF810B098F800304446FBB1252B81
:1044600002D11CE0252B03D014F8013F002BF9D119
:10447000A4EB08059DB1109B119ACAF80080013386
:104480002A44072BCAF80450119210937ADD002AAF
:1044900040F0B084039B10922B44CA4603932378C8
:1044A000002B00F0E08300204FF000038DF8373040
:1044B00004F1010862780546064603464FF0FF34D2
:1044C00008F10108A2F12001582900F2DE82DFE89C
:1044D00011F02102DC02DC022902DC02DC02DC0237
:1044E000DC02DC02DC0289029502DC02A200BD02D1
:1044F000DC029F01A401A401A401A401A401A40160
:10450000A401A401A401DC02DC02DC02DC02DC0266
:10451000DC02DC02DC02DC02DC02B201DC02DC02D6
:10452000DC02DC02DC02DC02DC02DC02DC02DC029B
:104530009701DC02DC02DC02DC02DC029B01DC0213
:10454000DC025302DC02DC02DC02DC02DC02DC0204
:10455000DC02DC02DC02DC025A021B02DC02DC02AE
:10456000DC026E021B02DC02DC027302DC02F501DB
:1045700082010902D702DC029A02DC02A700DC02F7
:10458000DC022E020AF1080A039B2B44039386E700
:104590005946069800F0ACFD18BBBBF80C1001F0B2
:1045A0001A030A2B7FF44BAFBBF90E30002BFFF63A
:1045B00046AFDBF86430DB0705D48F0503D4DBF8A6
:1045C000580001F0C3FA2B4642465946069800F0BF
:1045D0004DFD039003982DB0BDE8F08F00F0F4FE80
:1045E00009E7DBF86430D90704D4BBF80C309A052E
:1045F00040F1AA844FF0FF33039303982DB0BDE838
:10460000F08FDBF8580001F09FFABBF90C0081B283
:10461000FBE67642079243F0040398F800204FE748
:1046200008969E0600F150840799DD060A4600F1BF
:10463000EF83580640F1EC830E88043100270122F5
:1046400007914FF000018DF837100025611C00F034
:10465000168123F08001029156EA070140F014818F
:10466000002C40F05C83002A40F0B78313F0010374
:10467000059300F057840DF1B00B30230BF8413D4A
:10468000059BA342B8BF234601930DB101330193AB
:10469000029B13F00203099302D0019B02330193A2
:1046A000029B13F084030A9340F01782089B019A3F
:1046B0009D1A002D40F31182102D40F39084109B21
:1046C000119AC44ED6461027A2461946069C07E00A
:1046D00001F1020C0EF1080E0146103D102D11DD06
:1046E000481C1032072811928EE8C0001090EFDDB0
:1046F000002A40F0E481103D102D11464FF0010CCE
:10470000CE46EDDC54466146F2462A440729119212
:10471000CAF80060CAF80450109100F3EC829DF8CA
:1047200037500AF1080A481C002D40F0DE81099B31
:10473000002B00F0F88102320EA902230728119203
:1047400010908AE80A0040F3EA81002A40F08C8346
:104750000A9B802B4FF001001146CA4640F0E781CA
:10476000089B019D5E1B002E40F3E181102E9A4DA7
:1047700040F35084D4461027A246069C07E001F17E
:10478000020E0CF1080C0146103E102E11DD481CE3
:104790001032072811928CE8A0001090EFDD002A5B
:1047A00040F09D82103E102E4FF0010E1146CC4677
:1047B000EDDC5446E2463244BEF1070F11928AE81E
:1047C0006000CDF840E000F369830AF1080A0EF1B9
:1047D00001007146ABE1089613F0200240F08C8393
:1047E00013F0100140F01A8313F0400200F016831A
:1047F00007980A460146043106880791002720E7FA
:10480000089643F01003E7E7089643F0100308E723
:1048100043F0800398F8002052E6A2F13001002610
:1048200018F8012B06EB860601EB4606A2F13001D3
:104830000929F5D946E60896002840F0088443F097
:1048400010039E0600F14C83DD0600F1F38258064A
:1048500040F1F082079DB5F900602A46F71704324F
:10486000304639460792002871F10002C0F25D839C
:10487000611C9DF837504FF001027FF4EAAE56EA12
:10488000070100F04D820293012A00F08C82022A77
:1048900040F05C820B98CB46330906F00F0143EAE7
:1048A00007733A091E461746435C0BF8013D56EA6A
:1048B0000703F1D1A9EB0B030593E1E6002840F0D3
:1048C000C083990600F16783DA0600F1F1805B0688
:1048D00040F1EE80079A136804320792BDF80C206D
:1048E0001A80B8E507983D4A08960B920668782228
:1048F000302104308DF8392043F00203079000275F
:104900008DF8381002229CE60896002899D08DF880
:10491000375096E798F80020002D7FF4D1AD0120A4
:104920002025CDE543F0010398F80020C8E508965E
:10493000002840F0938329490B919F0600F1E882FB
:104940000798DE06014600F170825D0640F16D8237
:104950000431068807910027D80740F1228256EAE1
:10496000070100F01E8230218DF8392043F0020348
:104970008DF83810022264E60896002840F06B8318
:1049800017490B91D9E7079908960A688DF84820CE
:104990004FF000000A468DF83700043201200190E4
:1049A000079205900DF1480B0293002470E643F046
:1049B000400398F8002083E598F800206C2A03BF94
:1049C00098F8012043F0200308F1010843F0100398
:1049D00076E500BFF87D4000087E4000DC7D4000A9
:1049E000C87D400007990E680A46002E02F10402B5
:1049F000FFF60FAE079298F8002061E598F80020C6
:104A000001202B255CE507990896D1F800B04FF0FE
:104A100000028DF837200E1DBBF1000F00F0E5827B
:104A2000671C00F0C482224600215846019301F021
:104A3000D7FB019B002800F0E582A0EB0B0205925A
:104A4000079602939DF83750002419E698F8002045
:104A50002A2A08F1010700F0E982A2F130010929B0
:104A6000B8464FF000043FF62DAD18F8012B04EBCB
:104A7000840401EB4404A2F130010929F5D921E5B0
:104A800043F0200398F800201AE50896002840F02B
:104A9000DB82002A00F0E78001218DF848204FF0EA
:104AA000000201918DF8372005910DF1480B7BE74D
:104AB000079A136804320792039A1A60CBE40FAA8C
:104AC00004992046FFF74AFC002840F039811099EC
:104AD000119A01F1010CCE46FFE51099119A481C7C
:104AE0009DF83750002D3FF422AE01320DF137050D
:104AF0000121072811921090CAF80050CAF804103A
:104B000040F30881002A40F0BC81099B002B3FF450
:104B10001FAE0EAB022208461C931D92CA460146E8
:104B20000AF1080A01300A9B802B3FF419AE059B5D
:104B3000E41A002C2EDD102CB34D1EDDD6461026B7
:104B4000069FDDF810A006E0881C0EF1080E19463D
:104B5000103C102C10DD4B1C1032072B11928EE8EC
:104B600060001093F0DD002A65D1103C102C4FF04E
:104B700001001146CE46EEDCF2462244072811928F
:104B8000CAF80050CAF80440109000F385800AF17A
:104B9000080A01300599CAF800B00A4407281192A2
:104BA000CAF80410109040F38280002A40F0188167
:104BB000029B1092580735D5089B01995C1A002C6E
:104BC00040F3E780CA46102C40F3188210998F4EAC
:104BD000069FDDF810B0102506E0881C0AF1080ACF
:104BE0001946103C102C11DD4B1C1032072B119272
:104BF000CAF80060CAF804501093EEDD42BB103CC6
:104C0000102C4FF001001146CA46EDDC2244072863
:104C10001192CAF80060CAF80440109051DD002AD1
:104C200040F09B81039B089A01998A42ACBF9B1874
:104C30005B1803934EE00FAA51463846FFF78EFBF0
:104C4000002840F03F811099119A481CCE467FE71A
:104C50000FAA59463846FFF781FB60B91099119A9F
:104C6000481CCA46BDE7119BDDF810B0002B40F090
:104C7000D48100231093DBF8643013F0010FBBF8EC
:104C80000C3002D19A0540F1DE805B063FF5B2ACF4
:104C900003982DB0BDE8F08F002A40F00681059AF8
:104CA0001D9201231192CDF870B01093CA460AF1FB
:104CB000080A029B590704D5089B01995C1A002C2D
:104CC00081DC039B089901988142ACBF5B181B18DB
:104CD000039372BB00231093CA46FFF7BCBB0FAA15
:104CE00004992046FFF73AFB50BB1099119A01F145
:104CF000010ECC4648E5002A40F040819DF837106F
:104D0000002900F01B8101220DF1370110461D9290
:104D10001C91CA4601460AF1080A013007E5029BC8
:104D2000012A00F09880022A0DD102930026002764
:104D3000B0E50FAA04990698FFF710FB0028C9D028
:104D4000DDF810B097E7029300260027494600E0FF
:104D50005946F20842EA4772F80806F00703074688
:104D60001646303356EA070201F8013C01F1FF3BD9
:104D7000EED1029AD6077FF59DAD302B3FF49AAD68
:104D8000023930230BF8013CA9EB010305938B4654
:104D900076E4039B089A8A42ACBF9B185B18039386
:104DA00098E702224DE4002F08BF0A2E52D3CB46CB
:104DB000304639460A22002301F036FF30320BF824
:104DC000012D3046394600230A2201F02DFF064608
:104DD0000F4656EA0703EBD16CE50594CB464FE44A
:104DE0000FAA04990698FFF7B9FA0028A8D1119ADA
:104DF000CA465EE70FAA04990698FFF7AFFA0028A3
:104E00009ED1CA46FFF7C0BB087E4000F87D400037
:104E10000431166807910122002712E40798014621
:104E200004310668079100270BE40E6804310791EE
:104E3000002791E507990E680A46F7170432079292
:104E4000304639460FE5DBF8580000F07FFEBBF82E
:104E50000C301AE7029B02930DF1B00B30360123A0
:104E60000BF8416D05930BE40FAA04990698FFF720
:104E700075FA00287FF464AF1099119A481CCA464D
:104E800051E60FAA04990698FFF768FA00287FF404
:104E900057AF1099119A481CCA4648E4002A40F0BE
:104EA000918001201146CA4641E60FAA049906984E
:104EB000FFF754FA00287FF443AF1098119A01309D
:104EC000CA4667E6D346D6E6079E073626F00702AF
:104ED00002F10801D2E9006707910122FFF7B1BB97
:104EE000079E073626F00706D6E9000106F10802FC
:104EF000079206460F46B6E4079E073626F00702DD
:104F000002F10801D2E9006707910022FFF799BB7F
:104F1000079E073626F0070101F108000790D1E946
:104F2000006719E5CB46FFF7ABBB2D25764267EB53
:104F300047078DF837500122FFF788BB099BB3B9AB
:104F400011460120CA46F2E5DBF8580000F0FEFDEC
:104F50004FF0FF330393FFF750BB0FAA0499069855
:104F6000FFF7FCF900287FF4EBAE119AA9E60EAB2F
:104F700002221C931D920120CA46D0E50FAA049973
:104F80000698FFF7EBF900287FF4DAAE1099119A32
:104F9000481CCA46A4E5079A03991368CD1708462A
:104FA000043229460792C3E90001FFF754BA584674
:104FB00007960293FFF764F9002405909DF8375097
:104FC000FFF75EBB0FAA04990698FFF7C7F9002800
:104FD0007FF4B6AE1099119A481CCA46A7E51099FD
:104FE000119A204E0131FFF790BB062C28BF0624F2
:104FF000059407960194DFF870B0D5E41098194E27
:10500000013003E605949DF8375007960293044655
:10501000FFF736BB8646FFF7CEBB06980FAA594668
:10502000FFF79CF900283FF424AE24E6079998F88E
:1050300001200C68043144EAE474B8460791FFF794
:105040003FBA8DF837503CE48DF8375021E58DF8A4
:105050003750FFF7F4BB8DF8375091E48DF8375097
:1050600069E400BFF87D4000F07D40002DE9F0418B
:105070000C46ADF58D6D8989666EE589199621F02E
:1050800002010646E069ADF80C1017464FF4806146
:10509000626AADF80E5098461AAD0023079016A824
:1050A00009920693009504950291059100F048FD40
:1050B00043463A4669463046FFF790F9051E07DB3E
:1050C0003046694600F028F9002818BF4FF0FF3538
:1050D000BDF80C305B0603D5A38943F04003A381E0
:1050E000169800F02FFD28460DF58D6DBDE8F08176
:1050F00038B5304B1B6805460C4613B19A6B002A35
:1051000038D0B4F90C2093B218070CD52069A8B197
:1051100013F001021ED0636900225B42A361A2600A
:10512000F0B1002038BDD9063CD5580726D42069F7
:1051300042F00803A3819BB20028E9D103F4207256
:10514000B2F5007FE4D02846214600F02FFDA38968
:105150002069DDE7990758BF6269A2600028E0D1A5
:10516000B4F90C301A06DDD543F04003A3814FF0AB
:10517000FF3038BD184600F027F9C2E7216B51B166
:1051800004F14003994204D0284600F043FAB4F9F0
:105190000C200023236300232069636022F0240293
:1051A0002060C5E742F0400209232B604FF0FF303A
:1051B000A28138BD20004020024B13B1024800F00C
:1051C00005B8704700000000395440000023014634
:1051D0001A46184601F000BCB1F90C309AB22DE91C
:1051E000F0410D46110780463AD46A6843F40063E3
:1051F000002AAB816FDDAC6A002C49D000229BB243
:10520000D8F80060C8F8002013F4805267D02A6DE7
:105210005F0705D569682B6B521A0BB1EB6BD21A7D
:105220000023E9694046A047441C3CD0B5F90C3046
:105230002A692A6023F400630022AB81DB046A60E0
:1052400047D4296BC8F8006011B305F140039942B7
:1052500002D0404600F0DEF900202863BDE8F0816E
:105260002E69AEB12C682E6091070CBF6B690023CC
:10527000A41BAB600AE0234632466F6AE9694046E8
:10528000B8470028A4EB0004064404DD002CF2DC3F
:105290000020BDE8F081AB8943F04003AB814FF0C3
:1052A000FF30BDE8F081D8F800401D2CF3D8194B31
:1052B000E340DB4313F00103EDD1B5F90C206B6043
:1052C00022F400632969AB81DA042960B9D5002C86
:1052D000B7D12865B5E7EA6B002A8CDCD8E7012353
:1052E000E9694046A047431C024602D0AB89AC6A3C
:1052F0008EE7D8F80030002BF8D01D2B01D0162BEC
:1053000002D1C8F80060C3E7AB8943F04003AB812A
:10531000BDE8F0810100402038B50D46044608B1D3
:10532000836BBBB1B5F90C0088B16B6EDB0701D4A0
:10533000810517D520462946FFF74EFF6B6EDA0729
:10534000044602D4AB899B0507D5204638BD0446E8
:10535000204638BD00F038F8E4E7A86D00F0F6FB11
:10536000204638BDA86D00F0EFFBE3E7014900F0EF
:10537000AFBB00BFC16A400010B500230446818165
:10538000C28103604360836043660361436183615C
:10539000194608225C30FEF737FE07480749084ADD
:1053A000084B2062E4616162A262E36204F158008A
:1053B000BDE8104000F0C4BB05684000296840000B
:1053C000656840008568400010B50446124800F04A
:1053D000BBFBA26BD2B904F53B731048C4F8E832AA
:1053E0000321C4F8E022E063C4F8E41260680421F9
:1053F000FFF7C2FF01220921A068FFF7BDFF0222CB
:105400001221E068FFF7B8FF0123A3630248BDE85B
:10541000104000F09BBB00BF281140206D5340009E
:10542000014800F091BB00BF3C114020014800F052
:105430008DBB00BF3C11402038B50A4C0A4D641B9F
:10544000A4100AD004F18043013B05EB8305013C25
:1054500055F804399847002CF9D1BDE8384002F0DE
:105460006FBD00BF507F40004C7F40002DE9F047EA
:1054700082B080468946144600F054FB012836D09D
:105480004A4604F15C0301A9404601F057FA421C68
:10549000064625D0A8B39DF804E000250DF1040AC6
:1054A00009E023685A1C226083F800E00135B54208
:1054B00027D215F80AE0A368013B002BA360F0DABD
:1054C000A769BB4271462246404602DBBEF10A0F85
:1054D000E7D101F0DBF9431CE8D102B0BDE8F08769
:1054E000A38943F04003A38102B0BDE8F08709F12E
:1054F000FF33FE2BC4D85FFA89FE06468DF804E020
:10550000CBE7484602B0BDE8F08700BF30B5536E28
:1055100013F0010FB2F90C30144683B005469AB26D
:1055200001D190051CD5900406D4626E43F400535B
:1055300042F40052A381626628462246FFF796FF96
:10554000636EDA07054602D4A3899B0502D5284677
:1055500003B030BDA06D00F0F9FA284603B030BDAD
:10556000A06D019100F0F0FAB4F90C3001999AB2F3
:10557000D9E700BFF8B5244F0C46064600F07EFF81
:10558000BB685D68C4F57E610F3125F003052944D1
:1055900021F47F6121F00F01A1F58054B4F5805F03
:1055A00007DB0021304601F01BF9BB682B44984211
:1055B00004D0304600F068FF0020F8BD614230465C
:1055C00001F00EF901300DD0104BBA6819682D1B8F
:1055D00045F001053046091B5560196000F054FF85
:1055E0000120F8BD0021304601F0FAF8BA68831AAC
:1055F0000F2BDEDD064C0549246843F00103001B38
:1056000053600860D5E700BFC00540201C10402053
:10561000C8094020002944D02DE9F0410D468046BC
:1056200000F02CFF55F8047C694927F00103A5F12F
:105630000804E2188E685068B24220F003005ED081
:10564000FE0750600BD455F8087CE41B01F1080EEE
:10565000A56875453B446DD0E768EF60BD601518DF
:105660006D68ED073ED543F001026260E350B3F58B
:10567000007F17D2DB08581C9A104D6851F8307023
:10568000A7600123934001EBC0022B43083AE2607C
:105690004B6041F83040FC604046BDE8F04100F00E
:1056A000F3BE70475A0A042A52D89A0902F1390700
:1056B000FF0002F13805C819CA59083890424FD086
:1056C000516821F003018B4232D292689042F7D1A7
:1056D000C368A060E3609C60C4604046BDE8F041E0
:1056E00000F0D2BE95683B4FBD42034440D0D06825
:1056F000E86043F0010285606260E350B7E7FF07AE
:10570000034407D455F8082CA41A1344A068E2688F
:10571000C2609060304A126843F0010093426060BA
:105720008C60B9D32D4B40461968FFF723FFB3E7D0
:105730001046CDE711184968C90744D49168D2686A
:10574000CA60034443F0010091606060E350A3E746
:10575000142A16D802F15C07FF0002F15B05AAE7E4
:10576000AA1001234D6893402B434B600346B0E7DA
:1057700043F001024C610C61E560A5606260E3509A
:105780008AE7542A06D81A0B02F16F07FF0002F1CC
:105790006E0590E7B2F5AA7F06D8DA0B02F178071A
:1057A000FF0002F1770586E740F25450824206D8A6
:1057B0009A0C02F17D07FF0002F17C057BE74FF4B4
:1057C0007E777E2577E743F001016160136063E730
:1057D000C0054020C8054020CC0940204C10402086
:1057E0009368002B73D02DE9F04F8B8983B00C4662
:1057F00019070090164626D5226922B313F002003D
:1058000035682CD04FF00009B04FC846B246B845B5
:1058100043464A4628BF3B460098B8F1000F50D097
:10582000E169666AB047002858DDDAF808301B1ACB
:105830008144A8EB0008CAF80830002BE7D100200B
:1058400003B0BDE8F08F21460098FFF751FC002817
:1058500040F03381A389356813F00200D2D113F0F0
:10586000010945D14F46019637B39A05D4F808800F
:1058700040F183804745C346C0F0AB8013F4906F7E
:1058800040F0AC802068BA465A46494600F092FD86
:10589000A2682368A2EB08025B44A2602360019A1D
:1058A0009368A3EB0A03D144A7EB0A079360002B8C
:1058B000C5D0A389002FD8D1D5F800906F680835DE
:1058C000D2E7D5F80090D5F8048008359FE700208E
:1058D000704721460098FFF71FFD70B3B4F90C30F4
:1058E00043F040034FF0FF30A38103B0BDE8F08FD9
:1058F000814633464E46A8469A464D464EB380B33F
:10590000206823696269B145CB4628BFB3469842F7
:105910005F4604D9A36813449B4500F3A6809345D2
:105920004BDB1346676AE16900982A46B847071EB1
:10593000D4DDB9EB0709CCD00120DAF80830DB1B45
:105940003D44F61BCAF80830002B3FF478AF002E18
:10595000D5D108F1080313E9600098460833002EFA
:10596000F9D032460A21284600F03AFC002800F01F
:10597000A1800130A0EB0509C2E7206823699842A5
:1059800002D863699F425DD2B84528BFB8464246F7
:10599000494600F00FFDA3682268A3EB08034244C8
:1059A000A36022600BB1C24679E721460098FFF759
:1059B000B3FC002892D1C24671E75A46294600F04E
:1059C000F9FCA2682368A2EB0B025B44A26023608F
:1059D000AFE72068B846BA46BB4655E7626920681B
:1059E000216902EB4208A0EB010A08EBD8780AF122
:1059F00001004FEA680838444045424684BF80466B
:105A000042465B0544D51146009800F021F98346D3
:105A1000002855D05246216900F032FCA38923F4B6
:105A2000906343F08003A3810BEB0A00A8EB0A0309
:105A3000C4F810B0C4F814802060A360B846BA4619
:105A4000BB4621E76FF00041B94228BF39464A46BC
:105A500091FBF3F10098666A03FB01F3E169B0473B
:105A6000B0F1000A3FF71BAF38E71A462946019309
:105A700000F0A0FC2268019B00981A442260214695
:105A8000FFF74AFC019B00287FF428AF1F4650E730
:105A9000009800F0FFFC83460028C5D1009D2169D5
:105AA0002846FFF7B7FDB4F90C300C2223F0800331
:105AB0002A6015E706F1010922E74FF0FF30BFE643
:105AC000009A0C231360B4F90C3009E700FCFF7F47
:105AD0002DE9F84310F538771FD0884606464FF079
